{"abi":[{"type":"function","name":"counter","inputs":[],"outputs":[{"name":"","type":"uint256","internalType":"uint256"}],"stateMutability":"view"},{"type":"function","name":"get","inputs":[{"name":"value","type":"uint256","internalType":"uint256"}],"outputs":[],"stateMutability":"nonpayable"},{"type":"function","name":"increment","inputs":[],"outputs":[],"stateMutability":"nonpayable"},{"type":"event","name":"SomeEvent","inputs":[{"name":"value","type":"uint256","indexed":false,"internalType":"uint256"}],"anonymous":false}],"bytecode":{"object":"0x608060405234801561001057600080fd5b50610130806100206000396000f3fe6080604052348015600f57600080fd5b5060043610603c5760003560e01c806361bc221a1460415780639507d39a14605b578063d09de08a14606c575b600080fd5b604960005481565b60405190815260200160405180910390f35b606a606636600460bc565b6072565b005b606a60a8565b6040518181527f379340f64b65a8890c7ea4f6d86d2359beaf41080f36a7ea64b78a2c06eee3f09060200160405180910390a150565b60008054908060b58360d4565b9190505550565b60006020828403121560cd57600080fd5b5035919050565b60006001820160f357634e487b7160e01b600052601160045260246000fd5b506001019056fea26469706673582212200e0436d6a4675424a287f4edbe92fc0e1b3b9148eea186ab9624efaff115976f64736f6c63430008180033","linkReferences":{}},"methodIdentifiers":{"counter()":"61bc221a","get(uint256)":"9507d39a","increment()":"d09de08a"},"id":0}